{
  "transactions": [
    {
      "hash": "0x57fbf2f2900901e2328d80240cc10376ae4b72a36e8ceef17b9328f9b819c56e",
      "transactionType": "CALL",
      "contractName": null,
      "contractAddress": "0xe6f08992642a2d444dcac7b6416a8ae4b723f95b",
      "function": "transferOwnership(address)",
      "arguments": [
        "0x1e2e53c2451d0f9ED4B7952991BE0c95165D5c01"
      ],
      "transaction": {
        "from": "0x1e2e53c2451d0f9ed4b7952991be0c95165d5c01",
        "to": "0xe6f08992642a2d444dcac7b6416a8ae4b723f95b",
        "gas": "0x92aa",
        "value": "0x0",
        "input": "0xf2fde38b0000000000000000000000001e2e53c2451d0f9ed4b7952991be0c95165d5c01",
        "nonce": "0x23",
        "chainId": "0x138d7"
      },
      "additionalContracts": [],
      "isFixedGasLimit": false
    }
  ],
  "receipts": [
    {
      "status": "0x1",
      "cumulativeGasUsed": "0x6449",
      "logs": [
        {
          "address": "0xe6f08992642a2d444dcac7b6416a8ae4b723f95b",
          "topics": [
            "0x8be0079c531659141344cd1fd0a4f28419497f9722a3daafe3b4186f6b6457e0",
            "0x0000000000000000000000001e2e53c2451d0f9ed4b7952991be0c95165d5c01",
            "0x0000000000000000000000001e2e53c2451d0f9ed4b7952991be0c95165d5c01"
          ],
          "data": "0x",
          "blockHash": "0x2c9e4ca82340f7d65799293d80d441b3ae9ac75a30d79abea19717db62c1649c",
          "blockNumber": "0x84a",
          "transactionHash": "0x57fbf2f2900901e2328d80240cc10376ae4b72a36e8ceef17b9328f9b819c56e",
          "transactionIndex": "0x0",
          "logIndex": "0x0",
          "removed": false
        }
      ],
      "logsBloom": "0x00000000000000000000000000000000000000000000000000800000000000000000000000004000000000000000000000000000000000000000000000000000020000000000000000000000000000000001000000000000000000000000000000000000000000000000000000000000000000000000000000000000000008400000000000000000000000000000000000000000000000000000000000000000000000000002000000000000000000000000000000000000001000000000000000000000000000002000000000000000000000000000000000000000000000000000000000000000000000000000000000000000000000000000000000000000",
      "type": "0x2",
      "transactionHash": "0x57fbf2f2900901e2328d80240cc10376ae4b72a36e8ceef17b9328f9b819c56e",
      "transactionIndex": "0x0",
      "blockHash": "0x2c9e4ca82340f7d65799293d80d441b3ae9ac75a30d79abea19717db62c1649c",
      "blockNumber": "0x84a",
      "gasUsed": "0x6449",
      "effectiveGasPrice": "0xb2d05e07",
      "from": "0x1e2e53c2451d0f9ed4b7952991be0c95165d5c01",
      "to": "0xe6f08992642a2d444dcac7b6416a8ae4b723f95b",
      "contractAddress": null
    }
  ],
  "libraries": [],
  "pending": [],
  "returns": {},
  "timestamp": 1746584389,
  "chain": 80087,
  "commit": "ed8b857"
}