{
  "transactions": [
    {
      "hash": "0xf7769839a29d4cb84b4b6821a6527839d0ce600d90468907b20a708451d57c1b",
      "transactionType": "CALL",
      "contractName": null,
      "contractAddress": "0x8319360e5b357323157413f076a5dbd19450963c",
      "function": "transferOwnership(address)",
      "arguments": [
        "0x1e2e53c2451d0f9ED4B7952991BE0c95165D5c01"
      ],
      "transaction": {
        "from": "0x1e2e53c2451d0f9ed4b7952991be0c95165d5c01",
        "to": "0x8319360e5b357323157413f076a5dbd19450963c",
        "gas": "0x8b66",
        "value": "0x0",
        "input": "0xf2fde38b0000000000000000000000001e2e53c2451d0f9ed4b7952991be0c95165d5c01",
        "nonce": "0xe",
        "chainId": "0x138d7"
      },
      "additionalContracts": [],
      "isFixedGasLimit": false
    },
    {
      "hash": "0xcead0cfafa4e2c57df451fd2c866a9259f89a21a5c4af51dc46ac8b11959322b",
      "transactionType": "CALL",
      "contractName": null,
      "contractAddress": "0xcb1d742798c8dab4906724e61c1f8550656217c2",
      "function": "transferOwnership(address)",
      "arguments": [
        "0x1e2e53c2451d0f9ED4B7952991BE0c95165D5c01"
      ],
      "transaction": {
        "from": "0x1e2e53c2451d0f9ed4b7952991be0c95165d5c01",
        "to": "0xcb1d742798c8dab4906724e61c1f8550656217c2",
        "gas": "0x92aa",
        "value": "0x0",
        "input": "0xf2fde38b0000000000000000000000001e2e53c2451d0f9ed4b7952991be0c95165d5c01",
        "nonce": "0xf",
        "chainId": "0x138d7"
      },
      "additionalContracts": [],
      "isFixedGasLimit": false
    },
    {
      "hash": "0x93f2861ec43e04f0501f91cb025700beb71a8b66dbcdca9d96bb2cfb34704230",
      "transactionType": "CALL",
      "contractName": null,
      "contractAddress": "0xe1bedaa645601473d23a4a6d5c8fa7dedee7ce8f",
      "function": "transferOwnership(address)",
      "arguments": [
        "0x1e2e53c2451d0f9ED4B7952991BE0c95165D5c01"
      ],
      "transaction": {
        "from": "0x1e2e53c2451d0f9ed4b7952991be0c95165d5c01",
        "to": "0xe1bedaa645601473d23a4a6d5c8fa7dedee7ce8f",
        "gas": "0xa582",
        "value": "0x0",
        "input": "0xf2fde38b0000000000000000000000001e2e53c2451d0f9ed4b7952991be0c95165d5c01",
        "nonce": "0x10",
        "chainId": "0x138d7"
      },
      "additionalContracts": [],
      "isFixedGasLimit": false
    },
    {
      "hash": "0x3cc387f33e1c610e7c081b6d2402b90a2b8fca5a75d7062734c753010be528a2",
      "transactionType": "CALL",
      "contractName": null,
      "contractAddress": "0x43c74f390b2f26e575010ff8857677c37e8d15c9",
      "function": "transferOwnership(address)",
      "arguments": [
        "0x1e2e53c2451d0f9ED4B7952991BE0c95165D5c01"
      ],
      "transaction": {
        "from": "0x1e2e53c2451d0f9ed4b7952991be0c95165d5c01",
        "to": "0x43c74f390b2f26e575010ff8857677c37e8d15c9",
        "gas": "0xa582",
        "value": "0x0",
        "input": "0xf2fde38b0000000000000000000000001e2e53c2451d0f9ed4b7952991be0c95165d5c01",
        "nonce": "0x11",
        "chainId": "0x138d7"
      },
      "additionalContracts": [],
      "isFixedGasLimit": false
    },
    {
      "hash": "0x97f52d99b467ecbc7027950973c6e8aecc7b08de945ed99127a1bf9e1ab6cc4a",
      "transactionType": "CALL",
      "contractName": null,
      "contractAddress": "0xdbf9de9ebe2c6396535045c21e514e4acc72ac35",
      "function": "transferOwnership(address)",
      "arguments": [
        "0x1e2e53c2451d0f9ED4B7952991BE0c95165D5c01"
      ],
      "transaction": {
        "from": "0x1e2e53c2451d0f9ed4b7952991be0c95165d5c01",
        "to": "0xdbf9de9ebe2c6396535045c21e514e4acc72ac35",
        "gas": "0xa54d",
        "value": "0x0",
        "input": "0xf2fde38b0000000000000000000000001e2e53c2451d0f9ed4b7952991be0c95165d5c01",
        "nonce": "0x12",
        "chainId": "0x138d7"
      },
      "additionalContracts": [],
      "isFixedGasLimit": false
    }
  ],
  "receipts": [
    {
      "status": "0x1",
      "cumulativeGasUsed": "0x64ed",
      "logs": [
        {
          "address": "0x8319360e5b357323157413f076a5dbd19450963c",
          "topics": [
            "0x8be0079c531659141344cd1fd0a4f28419497f9722a3daafe3b4186f6b6457e0",
            "0x0000000000000000000000001e2e53c2451d0f9ed4b7952991be0c95165d5c01",
            "0x0000000000000000000000001e2e53c2451d0f9ed4b7952991be0c95165d5c01"
          ],
          "data": "0x",
          "blockHash": "0x95964ad287a7e0e97163017d0b881b1eab768d7e3459f936cb9c3cca332b9d98",
          "blockNumber": "0x2fe",
          "transactionHash": "0xf7769839a29d4cb84b4b6821a6527839d0ce600d90468907b20a708451d57c1b",
          "transactionIndex": "0x0",
          "logIndex": "0x0",
          "removed": false
        }
      ],
      "logsBloom": "0x00000000000000000000000000000000000000000000000000800000000000000000000000000000000000000000000000000000000000000000000000000000000000000000000000000000000000000001000000000000000000000000000000020000000000000000000000000000000000000000000000000000000008400000000000000000000000000000000000000000000000000000000000000000000000000002000000000008000000000000000000000000000000000000000000000000000000002000000000000000000000000000000000000000000000000000000000000000020000000000000000000000000000000000000000000000",
      "type": "0x2",
      "transactionHash": "0xf7769839a29d4cb84b4b6821a6527839d0ce600d90468907b20a708451d57c1b",
      "transactionIndex": "0x0",
      "blockHash": "0x95964ad287a7e0e97163017d0b881b1eab768d7e3459f936cb9c3cca332b9d98",
      "blockNumber": "0x2fe",
      "gasUsed": "0x64ed",
      "effectiveGasPrice": "0xb2d05e07",
      "from": "0x1e2e53c2451d0f9ed4b7952991be0c95165d5c01",
      "to": "0x8319360e5b357323157413f076a5dbd19450963c",
      "contractAddress": null
    },
    {
      "status": "0x1",
      "cumulativeGasUsed": "0xc936",
      "logs": [
        {
          "address": "0xcb1d742798c8dab4906724e61c1f8550656217c2",
          "topics": [
            "0x8be0079c531659141344cd1fd0a4f28419497f9722a3daafe3b4186f6b6457e0",
            "0x0000000000000000000000001e2e53c2451d0f9ed4b7952991be0c95165d5c01",
            "0x0000000000000000000000001e2e53c2451d0f9ed4b7952991be0c95165d5c01"
          ],
          "data": "0x",
          "blockHash": "0x95964ad287a7e0e97163017d0b881b1eab768d7e3459f936cb9c3cca332b9d98",
          "blockNumber": "0x2fe",
          "transactionHash": "0xcead0cfafa4e2c57df451fd2c866a9259f89a21a5c4af51dc46ac8b11959322b",
          "transactionIndex": "0x1",
          "logIndex": "0x1",
          "removed": false
        }
      ],
      "logsBloom": "0x00000000000000000000000000000000000000000000000000800000000000000000000000000000000000000000000000000000000000000000000000000000000000000000000000000000000000000001000000000000000000000000000000000000000000000000000002000000000000000000000000000000000008400000000000000000000000000000000000000000000000000000000000004000000000000002000000000000000000000000000000000000000000000000000200000000000000002000000000000000000000000000000000000000000000000000000000000000000000000000000000000000000000000000000000000000",
      "type": "0x2",
      "transactionHash": "0xcead0cfafa4e2c57df451fd2c866a9259f89a21a5c4af51dc46ac8b11959322b",
      "transactionIndex": "0x1",
      "blockHash": "0x95964ad287a7e0e97163017d0b881b1eab768d7e3459f936cb9c3cca332b9d98",
      "blockNumber": "0x2fe",
      "gasUsed": "0x6449",
      "effectiveGasPrice": "0xb2d05e07",
      "from": "0x1e2e53c2451d0f9ed4b7952991be0c95165d5c01",
      "to": "0xcb1d742798c8dab4906724e61c1f8550656217c2",
      "contractAddress": null
    },
    {
      "status": "0x1",
      "cumulativeGasUsed": "0x1410a",
      "logs": [
        {
          "address": "0xe1bedaa645601473d23a4a6d5c8fa7dedee7ce8f",
          "topics": [
            "0x8be0079c531659141344cd1fd0a4f28419497f9722a3daafe3b4186f6b6457e0",
            "0x0000000000000000000000001e2e53c2451d0f9ed4b7952991be0c95165d5c01",
            "0x0000000000000000000000001e2e53c2451d0f9ed4b7952991be0c95165d5c01"
          ],
          "data": "0x",
          "blockHash": "0x95964ad287a7e0e97163017d0b881b1eab768d7e3459f936cb9c3cca332b9d98",
          "blockNumber": "0x2fe",
          "transactionHash": "0x93f2861ec43e04f0501f91cb025700beb71a8b66dbcdca9d96bb2cfb34704230",
          "transactionIndex": "0x2",
          "logIndex": "0x2",
          "removed": false
        }
      ],
      "logsBloom": "0x00000000000000000000000000000000000000000000000000800000000000000000000000040000000000000000000000000000000000000000000100000000000000000000000000000000000000000001000000000000000000000000000000000000000000000000000000000000000000000000000000000000000008400000000000000000000000000000000000000000000000000000000000000000000000000002000000000000000000000000000000100000000000000000000000000000000000002000000000000000000000000000000000000000000000000000000000000000000000000000000000000000000000000000000000000000",
      "type": "0x2",
      "transactionHash": "0x93f2861ec43e04f0501f91cb025700beb71a8b66dbcdca9d96bb2cfb34704230",
      "transactionIndex": "0x2",
      "blockHash": "0x95964ad287a7e0e97163017d0b881b1eab768d7e3459f936cb9c3cca332b9d98",
      "blockNumber": "0x2fe",
      "gasUsed": "0x77d4",
      "effectiveGasPrice": "0xb2d05e07",
      "from": "0x1e2e53c2451d0f9ed4b7952991be0c95165d5c01",
      "to": "0xe1bedaa645601473d23a4a6d5c8fa7dedee7ce8f",
      "contractAddress": null
    },
    {
      "status": "0x1",
      "cumulativeGasUsed": "0x1b8de",
      "logs": [
        {
          "address": "0x43c74f390b2f26e575010ff8857677c37e8d15c9",
          "topics": [
            "0x8be0079c531659141344cd1fd0a4f28419497f9722a3daafe3b4186f6b6457e0",
            "0x0000000000000000000000001e2e53c2451d0f9ed4b7952991be0c95165d5c01",
            "0x0000000000000000000000001e2e53c2451d0f9ed4b7952991be0c95165d5c01"
          ],
          "data": "0x",
          "blockHash": "0x95964ad287a7e0e97163017d0b881b1eab768d7e3459f936cb9c3cca332b9d98",
          "blockNumber": "0x2fe",
          "transactionHash": "0x3cc387f33e1c610e7c081b6d2402b90a2b8fca5a75d7062734c753010be528a2",
          "transactionIndex": "0x3",
          "logIndex": "0x3",
          "removed": false
        }
      ],
      "logsBloom": "0x00000000000000000000000000000000000000000000000000800000000000000000000000000000000000000000000000000000000000000000000000000000000000000000000000000000000000000001000000000001000000000000000000000000000000000000000000000000000000000000000000000000000008400002000000000000000000000000000000000000000000000000000000000000000000000002000000000000000000000000000000000000000000000000000000000000000000002000000000000000000000000000000000000000000000000000000000020000000000000000000000000000000000000000000000000000",
      "type": "0x2",
      "transactionHash": "0x3cc387f33e1c610e7c081b6d2402b90a2b8fca5a75d7062734c753010be528a2",
      "transactionIndex": "0x3",
      "blockHash": "0x95964ad287a7e0e97163017d0b881b1eab768d7e3459f936cb9c3cca332b9d98",
      "blockNumber": "0x2fe",
      "gasUsed": "0x77d4",
      "effectiveGasPrice": "0xb2d05e07",
      "from": "0x1e2e53c2451d0f9ed4b7952991be0c95165d5c01",
      "to": "0x43c74f390b2f26e575010ff8857677c37e8d15c9",
      "contractAddress": null
    },
    {
      "status": "0x1",
      "cumulativeGasUsed": "0x2308c",
      "logs": [
        {
          "address": "0xdbf9de9ebe2c6396535045c21e514e4acc72ac35",
          "topics": [
            "0x8be0079c531659141344cd1fd0a4f28419497f9722a3daafe3b4186f6b6457e0",
            "0x0000000000000000000000001e2e53c2451d0f9ed4b7952991be0c95165d5c01",
            "0x0000000000000000000000001e2e53c2451d0f9ed4b7952991be0c95165d5c01"
          ],
          "data": "0x",
          "blockHash": "0x95964ad287a7e0e97163017d0b881b1eab768d7e3459f936cb9c3cca332b9d98",
          "blockNumber": "0x2fe",
          "transactionHash": "0x97f52d99b467ecbc7027950973c6e8aecc7b08de945ed99127a1bf9e1ab6cc4a",
          "transactionIndex": "0x4",
          "logIndex": "0x4",
          "removed": false
        }
      ],
      "logsBloom": "0x00000000000000000000000000000000000000000000000000800000000000000000000000000000000000000000000000000000000000000000000000000000000000000000000000000000000000000001000000000000000000000000000000000000000000000000000000000000000000000000000000000000000008400000000000000000000000000000000000000000000000000000000000000000000000000002000000000000000000000000000000000000000000000000000000000000000000002000000000000000000000000000000000040010000000000000000000000000000000000000000000000000000000000800000000000000",
      "type": "0x2",
      "transactionHash": "0x97f52d99b467ecbc7027950973c6e8aecc7b08de945ed99127a1bf9e1ab6cc4a",
      "transactionIndex": "0x4",
      "blockHash": "0x95964ad287a7e0e97163017d0b881b1eab768d7e3459f936cb9c3cca332b9d98",
      "blockNumber": "0x2fe",
      "gasUsed": "0x77ae",
      "effectiveGasPrice": "0xb2d05e07",
      "from": "0x1e2e53c2451d0f9ed4b7952991be0c95165d5c01",
      "to": "0xdbf9de9ebe2c6396535045c21e514e4acc72ac35",
      "contractAddress": null
    }
  ],
  "libraries": [],
  "pending": [],
  "returns": {},
  "timestamp": 1746583669,
  "chain": 80087,
  "commit": "ed8b857"
}